{
    "contractName": "MyContract",
    "abi": [
        {
            "inputs": [],
            "payable": false,
            "stateMutability": "nonpayable",
            "type": "constructor"
        },
        {
            "constant": false,
            "inputs": [
                {
                    "internalType": "string",
                    "name": "newName",
                    "type": "string"
                }
            ],
            "name": "setName",
            "outputs": [],
            "payable": false,
            "stateMutability": "nonpayable",
            "type": "function"
        },
        {
            "constant": true,
            "inputs": [],
            "name": "getName",
            "outputs": [
                {
                    "internalType": "string",
                    "name": "",
                    "type": "string"
                }
            ],
            "payable": false,
            "stateMutability": "view",
            "type": "function"
        },
        {
            "constant": false,
            "inputs": [
                {
                    "internalType": "uint256",
                    "name": "newAge",
                    "type": "uint256"
                }
            ],
            "name": "setAge",
            "outputs": [],
            "payable": false,
            "stateMutability": "nonpayable",
            "type": "function"
        },
        {
            "constant": true,
            "inputs": [],
            "name": "getAge",
            "outputs": [
                {
                    "internalType": "uint256",
                    "name": "",
                    "type": "uint256"
                }
            ],
            "payable": false,
            "stateMutability": "view",
            "type": "function"
        },
        {
            "constant": true,
            "inputs": [],
            "name": "get",
            "outputs": [
                {
                    "internalType": "string",
                    "name": "",
                    "type": "string"
                }
            ],
            "payable": false,
            "stateMutability": "view",
            "type": "function"
        },
        {
            "constant": false,
            "inputs": [
                {
                    "internalType": "string",
                    "name": "_value",
                    "type": "string"
                }
            ],
            "name": "set",
            "outputs": [],
            "payable": false,
            "stateMutability": "nonpayable",
            "type": "function"
        }
    ],
    "bytecode": "0x608060405234801561001057600080fd5b506040518060400160405280600781526020017f6d7956616c7565000000000000000000000000000000000000000000000000008152506002908051906020019061005c929190610062565b50610107565b828054600181600116156101000203166002900490600052602060002090601f016020900481019282601f106100a357805160ff19168380011785556100d1565b828001600101855582156100d1579182015b828111156100d05782518255916020019190600101906100b5565b5b5090506100de91906100e2565b5090565b61010491905b808211156101005760008160009055506001016100e8565b5090565b90565b610595806101166000396000f3fe608060405234801561001057600080fd5b50600436106100625760003560e01c806317d7de7c146100675780634ed3885e146100ea5780636d4ce63c146101a5578063967e6e6514610228578063c47f002714610246578063d5dcf12714610301575b600080fd5b61006f61032f565b6040518080602001828103825283818151815260200191508051906020019080838360005b838110156100af578082015181840152602081019050610094565b50505050905090810190601f1680156100dc5780820380516001836020036101000a031916815260200191505b509250505060405180910390f35b6101a36004803603602081101561010057600080fd5b810190808035906020019064010000000081111561011d57600080fd5b82018360208201111561012f57600080fd5b8035906020019184600183028401116401000000008311171561015157600080fd5b91908080601f016020809104026020016040519081016040528093929190818152602001838380828437600081840152601f19601f8201169050808301925050505050505091929192905050506103d1565b005b6101ad6103eb565b6040518080602001828103825283818151815260200191508051906020019080838360005b838110156101ed5780820151818401526020810190506101d2565b50505050905090810190601f16801561021a5780820380516001836020036101000a031916815260200191505b509250505060405180910390f35b61023061048d565b6040518082815260200191505060405180910390f35b6102ff6004803603602081101561025c57600080fd5b810190808035906020019064010000000081111561027957600080fd5b82018360208201111561028b57600080fd5b803590602001918460018302840111640100000000831117156102ad57600080fd5b91908080601f016020809104026020016040519081016040528093929190818152602001838380828437600081840152601f19601f820116905080830192505050505050509192919290505050610497565b005b61032d6004803603602081101561031757600080fd5b81019080803590602001909291905050506104b1565b005b606060008054600181600116156101000203166002900480601f0160208091040260200160405190810160405280929190818152602001828054600181600116156101000203166002900480156103c75780601f1061039c576101008083540402835291602001916103c7565b820191906000526020600020905b8154815290600101906020018083116103aa57829003601f168201915b5050505050905090565b80600290805190602001906103e79291906104bb565b5050565b606060028054600181600116156101000203166002900480601f0160208091040260200160405190810160405280929190818152602001828054600181600116156101000203166002900480156104835780601f1061045857610100808354040283529160200191610483565b820191906000526020600020905b81548152906001019060200180831161046657829003601f168201915b5050505050905090565b6000600154905090565b80600090805190602001906104ad9291906104bb565b5050565b8060018190555050565b828054600181600116156101000203166002900490600052602060002090601f016020900481019282601f106104fc57805160ff191683800117855561052a565b8280016001018555821561052a579182015b8281111561052957825182559160200191906001019061050e565b5b509050610537919061053b565b5090565b61055d91905b80821115610559576000816000905550600101610541565b5090565b9056fea265627a7a723158209185421f6ac632fb9b9202b6a12746624bb8aca55582a3ac062fd7995ad0ae1c64736f6c63430005100032",
    "source": "pragma solidity >=0.4.21 <0.7.0;\r\ncontract MyContract{\r\n    string private name;\r\n    uint private age;\r\n    string value;\r\n\r\n    constructor() public {\r\n        value = \"myValue\";\r\n    }\r\n\r\n    function setName (string memory newName) public{\r\n    name = newName;\r\n    }\r\n\r\n    function getName() public view returns (string memory)  {\r\n    return name;\r\n    }\r\n\r\n    function setAge (uint newAge) public{\r\n        age = newAge;\r\n    }\r\n\r\n    function getAge() public view returns (uint) {\r\n        return age;\r\n    }\r\n\r\n    function get() public view returns(string memory) {\r\n        return value;\r\n    }\r\n\r\n    function set(string memory _value) public {\r\n        value = _value;\r\n    }\r\n}",
    "sourcePath": "C:/Users/Robert/Downloads/ReactTrufflePrjdApp/contracts/MyContract.sol",
    "compiler": {
        "name": "solc",
        "version": "0.5.16+commit.9c3226ce.Emscripten.clang"
    },
    "schemaVersion": "3.4.0",
    "updatedAt": "2021-05-04T16:15:05.817Z",
    "networkType": "ethereum",
    "devdoc": {
        "methods": {}
    },
    "userdoc": {
        "methods": {}
    }
}