{
  "contractName": "MyLibrary",
  "abi": [
    {
      "inputs": [],
      "stateMutability": "nonpayable",
      "type": "constructor"
    },
    {
      "inputs": [
        {
          "internalType": "address",
          "name": "",
          "type": "address"
        }
      ],
      "name": "clients",
      "outputs": [
        {
          "internalType": "contract Client",
          "name": "",
          "type": "address"
        }
      ],
      "stateMutability": "view",
      "type": "function",
      "constant": true
    },
    {
      "inputs": [
        {
          "internalType": "uint256",
          "name": "",
          "type": "uint256"
        }
      ],
      "name": "libraryBooks",
      "outputs": [
        {
          "internalType": "contract Book",
          "name": "",
          "type": "address"
        }
      ],
      "stateMutability": "view",
      "type": "function",
      "constant": true
    },
    {
      "inputs": [
        {
          "internalType": "string",
          "name": "_title",
          "type": "string"
        },
        {
          "internalType": "string",
          "name": "_author",
          "type": "string"
        },
        {
          "internalType": "uint256",
          "name": "_year",
          "type": "uint256"
        },
        {
          "internalType": "uint256",
          "name": "_price",
          "type": "uint256"
        }
      ],
      "name": "addBook",
      "outputs": [
        {
          "internalType": "contract Book",
          "name": "",
          "type": "address"
        },
        {
          "internalType": "uint256",
          "name": "",
          "type": "uint256"
        }
      ],
      "stateMutability": "nonpayable",
      "type": "function"
    },
    {
      "inputs": [
        {
          "internalType": "uint256",
          "name": "_id",
          "type": "uint256"
        },
        {
          "internalType": "string",
          "name": "_title",
          "type": "string"
        },
        {
          "internalType": "string",
          "name": "_author",
          "type": "string"
        },
        {
          "internalType": "uint256",
          "name": "_year",
          "type": "uint256"
        },
        {
          "internalType": "uint256",
          "name": "_price",
          "type": "uint256"
        }
      ],
      "name": "addClient",
      "outputs": [],
      "stateMutability": "nonpayable",
      "type": "function"
    },
    {
      "inputs": [],
      "name": "getBooks",
      "outputs": [
        {
          "internalType": "contract Book[]",
          "name": "",
          "type": "address[]"
        }
      ],
      "stateMutability": "view",
      "type": "function",
      "constant": true
    },
    {
      "inputs": [],
      "name": "getRandom",
      "outputs": [
        {
          "internalType": "string",
          "name": "",
          "type": "string"
        }
      ],
      "stateMutability": "pure",
      "type": "function",
      "constant": true
    }
  ],
  "bytecode": "0x6080604052600060025534801561001557600080fd5b50610d89806100256000396000f3fe608060405234801561001057600080fd5b50600436106100625760003560e01c806361eed2a9146100675780638be5df37146100905780639f349789146100a5578063aacc5a17146100ba578063b98a9cda146100cf578063d4c6758b146100e2575b600080fd5b61007a6100753660046103b2565b610103565b604051610087919061057d565b60405180910390f35b6100a361009e366004610469565b61011e565b005b6100ad61018b565b6040516100879190610530565b6100c261025e565b60405161008791906105aa565b61007a6100dd366004610451565b61027c565b6100f56100f03660046103e0565b610297565b604051610087929190610591565b6000602081905290815260409020546001600160a01b031681565b8383838360405161012e90610324565b61013b94939291906105bd565b604051809103906000f080158015610157573d6000803e3d6000fd5b5060009586526001602052604090952080546001600160a01b0319166001600160a01b039096169590951790945550505050565b6060600060025467ffffffffffffffff8111156101b857634e487b7160e01b600052604160045260246000fd5b6040519080825280602002602001820160405280156101e1578160200160208202803683370190505b50905060005b6002548110156102585760008181526001602052604090205482516001600160a01b039091169083908390811061022e57634e487b7160e01b600052603260045260246000fd5b6001600160a01b039092166020928302919091019091015280610250816105f6565b9150506101e7565b50905090565b6040805180820190915260048152631d195cdd60e21b602082015290565b6001602052600090815260409020546001600160a01b031681565b6000806000868686866040516102ac90610324565b6102b994939291906105bd565b604051809103906000f0801580156102d5573d6000803e3d6000fd5b5060028054600090815260016020526040812080546001600160a01b0319166001600160a01b038516179055815492935061030f836105f6565b90915550506002549097909650945050505050565b6107208061063483390190565b600082601f830112610341578081fd5b813567ffffffffffffffff8082111561035c5761035c61061d565b604051601f8301601f1916810160200182811182821017156103805761038061061d565b604052828152848301602001861015610397578384fd5b82602086016020830137918201602001929092529392505050565b6000602082840312156103c3578081fd5b81356001600160a01b03811681146103d9578182fd5b9392505050565b600080600080608085870312156103f5578283fd5b843567ffffffffffffffff8082111561040c578485fd5b61041888838901610331565b9550602087013591508082111561042d578485fd5b5061043a87828801610331565b949794965050505060408301359260600135919050565b600060208284031215610462578081fd5b5035919050565b600080600080600060a08688031215610480578081fd5b85359450602086013567ffffffffffffffff8082111561049e578283fd5b6104aa89838a01610331565b955060408801359150808211156104bf578283fd5b506104cc88828901610331565b9598949750949560608101359550608001359392505050565b60008151808452815b8181101561050a576020818501810151868301820152016104ee565b8181111561051b5782602083870101525b50601f01601f19169290920160200192915050565b6020808252825182820181905260009190848201906040850190845b818110156105715783516001600160a01b03168352928401929184019160010161054c565b50909695505050505050565b6001600160a01b0391909116815260200190565b6001600160a01b03929092168252602082015260400190565b6000602082526103d960208301846104e5565b6000608082526105d060808301876104e5565b82810360208401526105e281876104e5565b604084019590955250506060015292915050565b600060001982141561061657634e487b7160e01b81526011600452602481fd5b5060010190565b634e487b7160e01b600052604160045260246000fdfe608060405234801561001057600080fd5b5060405161072038038061072083398101604081905261002f916101b2565b8351610042906001906020870190610079565b508251610056906002906020860190610079565b506003919091556004555050600580546001600160a01b03191633179055610273565b82805461008590610222565b90600052602060002090601f0160209004810192826100a757600085556100ed565b82601f106100c057805160ff19168380011785556100ed565b828001600101855582156100ed579182015b828111156100ed5782518255916020019190600101906100d2565b506100f99291506100fd565b5090565b5b808211156100f957600081556001016100fe565b600082601f830112610122578081fd5b81516001600160401b038082111561013c5761013c61025d565b6040516020601f8401601f19168201810183811183821017156101615761016161025d565b6040528382528584018101871015610177578485fd5b8492505b83831015610198578583018101518284018201529182019161017b565b838311156101a857848185840101525b5095945050505050565b600080600080608085870312156101c7578384fd5b84516001600160401b03808211156101dd578586fd5b6101e988838901610112565b955060208701519150808211156101fe578485fd5b5061020b87828801610112565b604087015160609097015195989097509350505050565b60028104600182168061023657607f821691505b6020821081141561025757634e487b7160e01b600052602260045260246000fd5b50919050565b634e487b7160e01b600052604160045260246000fd5b61049e806102826000396000f3fe608060405234801561001057600080fd5b506004361061009e5760003560e01c8063a5faa12511610066578063a5faa12514610104578063bdd85ffa14610119578063dbd0e1b61461012c578063fd08921b14610141578063ff3c1a8f146101495761009e565b80630e5e739c146100a35780633fe14e03146100ad57806372910be0146100c057806391b7f5ed146100d357806398d5fdca146100e6575b600080fd5b6100ab610151565b005b6100ab6100bb3660046102ee565b610165565b6100ab6100ce3660046102ee565b61017c565b6100ab6100e136600461038f565b61018f565b6100ee610194565b6040516100fb919061040e565b60405180910390f35b61010c61019a565b6040516100fb91906103bb565b6100ab61012736600461038f565b61022c565b610134610231565b6040516100fb91906103a7565b6100ee610240565b61010c610246565b600080546001600160a01b03191633179055565b8051610178906002906020840190610255565b5050565b8051610178906001906020840190610255565b600455565b60045490565b6060600280546101a990610417565b80601f01602080910402602001604051908101604052809291908181526020018280546101d590610417565b80156102225780601f106101f757610100808354040283529160200191610222565b820191906000526020600020905b81548152906001019060200180831161020557829003601f168201915b5050505050905090565b600355565b6005546001600160a01b031690565b60035490565b6060600180546101a990610417565b82805461026190610417565b90600052602060002090601f01602090048101928261028357600085556102c9565b82601f1061029c57805160ff19168380011785556102c9565b828001600101855582156102c9579182015b828111156102c95782518255916020019190600101906102ae565b506102d59291506102d9565b5090565b5b808211156102d557600081556001016102da565b60006020808385031215610300578182fd5b823567ffffffffffffffff80821115610317578384fd5b818501915085601f83011261032a578384fd5b81358181111561033c5761033c610452565b604051601f8201601f191681018501838111828210171561035f5761035f610452565b6040528181528382018501881015610375578586fd5b818585018683013790810190930193909352509392505050565b6000602082840312156103a0578081fd5b5035919050565b6001600160a01b0391909116815260200190565b6000602080835283518082850152825b818110156103e7578581018301518582016040015282016103cb565b818111156103f85783604083870101525b50601f01601f1916929092016040019392505050565b90815260200190565b60028104600182168061042b57607f821691505b6020821081141561044c57634e487b7160e01b600052602260045260246000fd5b50919050565b634e487b7160e01b600052604160045260246000fdfea26469706673582212204939c9d9fd464817a5fa373ba4100f2e539efc0c8035db74407a767e59f2752a64736f6c63430008000033a264697066735822122052d5f39fa4923b9986831be3f80720e54ae23591b9843b835db2744f5d4e82b164736f6c63430008000033",
  "immutableReferences": {},
  "source": "// pragma solidity >=0.4.21 <0.7.0;\r\npragma solidity ^0.8.0;\r\n\r\nimport \"./Book.sol\";\r\nimport \"./Client.sol\";\r\n\r\ncontract MyLibrary {\r\n    mapping(address => Client) public clients;\r\n    mapping(uint256 => Book) public libraryBooks;\r\n    uint256 nrBooks = 0;\r\n\r\n    // struct ClientBook{\r\n    //     Client client;\r\n    //     Book book[];\r\n    // }\r\n    // ClientBook[] public clientBooks;\r\n    // mapping(Client => mapping(uint => Book)) public clientBooks;\r\n\r\n    //uint[] public books;\r\n\r\n    constructor() public {\r\n        // books.push(0);\r\n        // value = \"myValue\";\r\n        // clients[clients.length] = clientName;\r\n    }\r\n\r\n    function addBook(\r\n        string memory _title,\r\n        string memory _author,\r\n        uint256 _year,\r\n        uint256 _price\r\n    ) public returns (Book, uint256) {\r\n        // libraryBooks[_id].push(new Book( _title, _author, _year, _price));\r\n        Book temp = new Book(_title, _author, _year, _price);\r\n        libraryBooks[nrBooks] = temp;\r\n        nrBooks++;\r\n        return (temp, nrBooks);\r\n    }\r\n\r\n    function addClient(\r\n        uint256 _id,\r\n        string memory _title,\r\n        string memory _author,\r\n        uint256 _year,\r\n        uint256 _price\r\n    ) public {\r\n        // libraryBooks[_id].push(new Book( _title, _author, _year, _price));\r\n        libraryBooks[_id] = new Book(_title, _author, _year, _price);\r\n    }\r\n\r\n    modifier exists(uint256 _id) {\r\n        require(nrBooks < _id, \"The book does not exist.\");\r\n        _;\r\n    }\r\n\r\n    modifier costs(address buyer, uint256 _amount) {\r\n        require(buyer.balance <= _amount, \"Not enough Ether provided.\");\r\n        _;\r\n    }\r\n\r\n    // function buyBook(uint256 _id, address payable buyer)\r\n    //     public\r\n    //     payable\r\n    //     costs(buyer, libraryBooks[_id].getPrice())\r\n    //     exists(_id)\r\n    // {\r\n    //     address seller = libraryBooks[_id].getSeller();\r\n    //     buyer.transfer(libraryBooks[_id].getPrice());\r\n    //     clients[buyer].addBook(libraryBooks[_id]);\r\n    //     delete (libraryBooks[_id]);\r\n    //     nrBooks--;\r\n    // }\r\n\r\n    function getBooks() public view returns (Book[] memory) {\r\n        Book[] memory temp = new Book[](nrBooks);\r\n\r\n        for (uint256 i = 0; i < nrBooks; i++) {\r\n            temp[i] = libraryBooks[i];\r\n        }\r\n\r\n        return temp;\r\n    }\r\n\r\n    function getRandom() public pure returns (string memory) {\r\n        return \"test\";\r\n    }\r\n\r\n    // function setName (string memory newName) public{\r\n    // MyContract.deployed().then((instance) => { app = instance } )ame = newName;\r\n    // }\r\n\r\n    // function getName() public view returns (string memory)  {\r\n    // return name;\r\n    // }\r\n\r\n    // function setAge (uint newAge) public{\r\n    //     age = newAge;\r\n    // }\r\n\r\n    // function getAge() public view returns (uint) {\r\n    //     return age;\r\n    // }\r\n\r\n    // function get() public view returns(string memory) {\r\n    //     return value;\r\n    // }\r\n\r\n    // function set(string memory _value) public {\r\n    //     value = _value;\r\n    // }\r\n}\r\n",
  "sourcePath": "D:/Projects/Blockchain/booker-dapp/contracts/MyLibrary.sol",
  "compiler": {
    "name": "solc",
    "version": "0.8.0+commit.c7dfd78e.Emscripten.clang"
  },
  "schemaVersion": "3.4.0",
  "updatedAt": "2021-05-06T14:21:54.041Z",
  "networkType": "ethereum",
  "devdoc": {
    "kind": "dev",
    "methods": {},
    "version": 1
  },
  "userdoc": {
    "kind": "user",
    "methods": {},
    "version": 1
  }
}