{
  "contractName": "MyLibrary",
  "abi": [
    {
      "inputs": [],
      "stateMutability": "nonpayable",
      "type": "constructor"
    },
    {
      "anonymous": false,
      "inputs": [
        {
          "indexed": false,
          "internalType": "string",
          "name": "bookId",
          "type": "string"
        }
      ],
      "name": "BookDeregistered",
      "type": "event"
    },
    {
      "anonymous": false,
      "inputs": [
        {
          "indexed": false,
          "internalType": "string",
          "name": "productId",
          "type": "string"
        }
      ],
      "name": "BookDeregistrationFaled",
      "type": "event"
    },
    {
      "anonymous": false,
      "inputs": [
        {
          "indexed": false,
          "internalType": "string",
          "name": "bookId",
          "type": "string"
        }
      ],
      "name": "BookRegistered",
      "type": "event"
    },
    {
      "anonymous": false,
      "inputs": [
        {
          "indexed": false,
          "internalType": "string",
          "name": "productId",
          "type": "string"
        }
      ],
      "name": "BookRegisteredFailed",
      "type": "event"
    },
    {
      "anonymous": false,
      "inputs": [
        {
          "indexed": false,
          "internalType": "address",
          "name": "customer",
          "type": "address"
        }
      ],
      "name": "CustomerRegistered",
      "type": "event"
    },
    {
      "anonymous": false,
      "inputs": [
        {
          "indexed": false,
          "internalType": "address",
          "name": "customer",
          "type": "address"
        }
      ],
      "name": "CustomerRegistrationFailed",
      "type": "event"
    },
    {
      "inputs": [
        {
          "internalType": "string",
          "name": "",
          "type": "string"
        }
      ],
      "name": "books",
      "outputs": [
        {
          "internalType": "string",
          "name": "id",
          "type": "string"
        },
        {
          "internalType": "string",
          "name": "name",
          "type": "string"
        },
        {
          "internalType": "string",
          "name": "author",
          "type": "string"
        },
        {
          "internalType": "uint256",
          "name": "price",
          "type": "uint256"
        },
        {
          "internalType": "uint256",
          "name": "default_amount",
          "type": "uint256"
        }
      ],
      "stateMutability": "view",
      "type": "function",
      "constant": true
    },
    {
      "inputs": [
        {
          "internalType": "uint256",
          "name": "",
          "type": "uint256"
        }
      ],
      "name": "booksIds",
      "outputs": [
        {
          "internalType": "string",
          "name": "",
          "type": "string"
        }
      ],
      "stateMutability": "view",
      "type": "function",
      "constant": true
    },
    {
      "inputs": [],
      "name": "owner",
      "outputs": [
        {
          "internalType": "address",
          "name": "",
          "type": "address"
        }
      ],
      "stateMutability": "view",
      "type": "function",
      "constant": true
    },
    {
      "inputs": [
        {
          "internalType": "address",
          "name": "new_owner",
          "type": "address"
        }
      ],
      "name": "transferOwnership",
      "outputs": [],
      "stateMutability": "nonpayable",
      "type": "function"
    },
    {
      "inputs": [
        {
          "internalType": "string",
          "name": "id",
          "type": "string"
        },
        {
          "internalType": "string",
          "name": "name",
          "type": "string"
        },
        {
          "internalType": "string",
          "name": "author",
          "type": "string"
        },
        {
          "internalType": "uint256",
          "name": "price",
          "type": "uint256"
        },
        {
          "internalType": "uint256",
          "name": "default_amount",
          "type": "uint256"
        }
      ],
      "name": "addBook",
      "outputs": [
        {
          "internalType": "bool",
          "name": "success",
          "type": "bool"
        }
      ],
      "stateMutability": "nonpayable",
      "type": "function"
    },
    {
      "inputs": [
        {
          "internalType": "string",
          "name": "id",
          "type": "string"
        }
      ],
      "name": "deleteBook",
      "outputs": [
        {
          "internalType": "bool",
          "name": "success",
          "type": "bool"
        }
      ],
      "stateMutability": "nonpayable",
      "type": "function"
    },
    {
      "inputs": [],
      "name": "getMyProfile",
      "outputs": [
        {
          "internalType": "address",
          "name": "adr",
          "type": "address"
        },
        {
          "internalType": "string[]",
          "name": "ownedBooks",
          "type": "string[]"
        }
      ],
      "stateMutability": "nonpayable",
      "type": "function"
    },
    {
      "inputs": [
        {
          "internalType": "string",
          "name": "id",
          "type": "string"
        }
      ],
      "name": "getBook",
      "outputs": [
        {
          "internalType": "string",
          "name": "name",
          "type": "string"
        },
        {
          "internalType": "string",
          "name": "author",
          "type": "string"
        },
        {
          "internalType": "uint256",
          "name": "price",
          "type": "uint256"
        },
        {
          "internalType": "uint256",
          "name": "default_amount",
          "type": "uint256"
        }
      ],
      "stateMutability": "view",
      "type": "function",
      "constant": true
    },
    {
      "inputs": [],
      "name": "getRandom",
      "outputs": [
        {
          "internalType": "string",
          "name": "",
          "type": "string"
        }
      ],
      "stateMutability": "pure",
      "type": "function",
      "constant": true
    },
    {
      "inputs": [],
      "name": "getBooksCount",
      "outputs": [
        {
          "internalType": "uint256",
          "name": "count",
          "type": "uint256"
        }
      ],
      "stateMutability": "view",
      "type": "function",
      "constant": true
    }
  ],
  "bytecode": "0x608060405234801561001057600080fd5b50600080546001600160a01b0319908116339081179091161790556113af8061003a6000396000f3fe608060405234801561001057600080fd5b506004361061009e5760003560e01c8063b66d5c9111610066578063b66d5c9114610130578063c37a836114610143578063dfd83d2a14610166578063f2fde38b1461017b578063f9637523146101905761009e565b806321527e50146100a35780632b9dfe80146100c25780637d2cd4bf146100e65780638da5cb5b14610106578063aacc5a171461011b575b600080fd5b6100ab6101a3565b6040516100b99291906111d9565b60405180910390f35b6100d56100d0366004611094565b6103b9565b6040516100b9959493929190611268565b6100f96100f43660046110cf565b61058a565b6040516100b9919061124a565b61010e61072f565b6040516100b991906111c5565b61012361073e565b6040516100b99190611255565b61012361013e366004611165565b61075c565b610156610151366004611094565b610808565b6040516100b994939291906112b6565b61016e6109bb565b6040516100b991906112ef565b61018e610189366004611066565b6109c1565b005b6100f961019e366004611094565b610a22565b336000908152600160205260408120546060906001600160a01b0316156102bd573360009081526001602081815260408084208054930180548251818502810185019093528083526001600160a01b0390941694909391928492919084015b828210156102ae57838290600052602060002001805461022190611328565b80601f016020809104026020016040519081016040528092919081815260200182805461024d90611328565b801561029a5780601f1061026f5761010080835404028352916020019161029a565b820191906000526020600020905b81548152906001019060200180831161027d57829003601f168201915b505050505081526020019060010190610202565b505050509050915091506103b5565b6102c633610d20565b156103b5573360009081526001602081815260408084208054930180548251818502810185019093528083526001600160a01b0390941694909391928492919084015b828210156102ae57838290600052602060002001805461032890611328565b80601f016020809104026020016040519081016040528092919081815260200182805461035490611328565b80156103a15780601f10610376576101008083540402835291602001916103a1565b820191906000526020600020905b81548152906001019060200180831161038457829003601f168201915b505050505081526020019060010190610309565b9091565b80516020818301810180516002825292820191909301209152805481906103df90611328565b80601f016020809104026020016040519081016040528092919081815260200182805461040b90611328565b80156104585780601f1061042d57610100808354040283529160200191610458565b820191906000526020600020905b81548152906001019060200180831161043b57829003601f168201915b50505050509080600101805461046d90611328565b80601f016020809104026020016040519081016040528092919081815260200182805461049990611328565b80156104e65780601f106104bb576101008083540402835291602001916104e6565b820191906000526020600020905b8154815290600101906020018083116104c957829003601f168201915b5050505050908060020180546104fb90611328565b80601f016020809104026020016040519081016040528092919081815260200182805461052790611328565b80156105745780601f1061054957610100808354040283529160200191610574565b820191906000526020600020905b81548152906001019060200180831161055757829003601f168201915b5050505050908060030154908060040154905085565b600080546001600160a01b031633146105a257600080fd5b60006040518060a001604052808881526020018781526020018681526020018581526020018481525090506105d681610e38565b156106e957806002886040516105ec91906111a9565b90815260200160405180910390206000820151816000019080519060200190610616929190610e9a565b50602082810151805161062f9260018501920190610e9a565b506040820151805161064b916002840191602090910190610e9a565b506060820151600380830191909155608090920151600490910155805460018101825560009190915287516106a7917fc2575a0e9e593c00f959f8c92f12db2869c3395a3b0502d05e2516446f71f85b019060208a0190610e9a565b507f5deba97512d6e888de03aa19fcf4930512094d2f0fff544d12413485f38fc2a2876040516106d79190611255565b60405180910390a16001915050610726565b7fa84a2ab48e9a5c0a805c086fcc0584023a4661f7dc92da1f77010895790cead1876040516107189190611255565b60405180910390a160009150505b95945050505050565b6000546001600160a01b031681565b6040805180820190915260048152631d195cdd60e21b602082015290565b6003818154811061076c57600080fd5b90600052602060002001600091509050805461078790611328565b80601f01602080910402602001604051908101604052809291908181526020018280546107b390611328565b80156108005780601f106107d557610100808354040283529160200191610800565b820191906000526020600020905b8154815290600101906020018083116107e357829003601f168201915b505050505081565b60608060008060028560405161081e91906111a9565b908152602001604051809103902060010160028660405161083f91906111a9565b908152602001604051809103902060020160028760405161086091906111a9565b90815260200160405180910390206003015460028860405161088291906111a9565b9081526020016040518091039020600401548380546108a090611328565b80601f01602080910402602001604051908101604052809291908181526020018280546108cc90611328565b80156109195780601f106108ee57610100808354040283529160200191610919565b820191906000526020600020905b8154815290600101906020018083116108fc57829003601f168201915b5050505050935082805461092c90611328565b80601f016020809104026020016040519081016040528092919081815260200182805461095890611328565b80156109a55780601f1061097a576101008083540402835291602001916109a5565b820191906000526020600020905b81548152906001019060200180831161098857829003601f168201915b5050505050925093509350935093509193509193565b60035490565b6000546001600160a01b031633146109d857600080fd5b6001600160a01b038116158015906109fe57506000546001600160a01b03828116911614155b15610a1f57600080546001600160a01b0319166001600160a01b0383161790555b50565b600080546001600160a01b03163314610a3a57600080fd5b6000600283604051610a4c91906111a9565b90815260200160405180910390206040518060a0016040529081600082018054610a7590611328565b80601f0160208091040260200160405190810160405280929190818152602001828054610aa190611328565b8015610aee5780601f10610ac357610100808354040283529160200191610aee565b820191906000526020600020905b815481529060010190602001808311610ad157829003601f168201915b50505050508152602001600182018054610b0790611328565b80601f0160208091040260200160405190810160405280929190818152602001828054610b3390611328565b8015610b805780601f10610b5557610100808354040283529160200191610b80565b820191906000526020600020905b815481529060010190602001808311610b6357829003601f168201915b50505050508152602001600282018054610b9990611328565b80601f0160208091040260200160405190810160405280929190818152602001828054610bc590611328565b8015610c125780601f10610be757610100808354040283529160200191610c12565b820191906000526020600020905b815481529060010190602001808311610bf557829003601f168201915b50505050508152602001600382015481526020016004820154815250509050610c3f816000015184610e41565b15610cde57600283604051610c5491906111a9565b9081526040519081900360200190206000610c6f8282610f1e565b610c7d600183016000610f1e565b610c8b600283016000610f1e565b6003820160009055600482016000905550507fb8b06af68b06bfd06a74ee0a2f066e83511c89e917304ceca2a58891748da35a83604051610ccc9190611255565b60405180910390a16001915050610d1b565b7f23a465e5078e5c2eb529fa2fa16a1dfe48663bd5a3b23f0f14ba20229cdbf24f83604051610d0d9190611255565b60405180910390a160009150505b919050565b60006001600160a01b03821615610df9576040805180820182526001600160a01b03841681528151600080825260208281019094529282019083610d74565b6060815260200190600190039081610d5f5790505b5090526001600160a01b038481166000908152600160208181526040909220845181546001600160a01b03191694169390931783558382015180519495508594610dc693928501929190910190610f5a565b509050507f155e8619f4d23b96769599cb9af87da3e06a360082869c18578011da9a06e67083604051610ccc91906111c5565b7f7c66b00fc05577d946381dc5b311ac0e6f93dbdc6f1b7b6a570ccdd7dbed6a0382604051610e2891906111c5565b60405180910390a1506000919050565b60600151151590565b600081604051602001610e5491906111a9565b6040516020818303038152906040528051906020012083604051602001610e7b91906111a9565b6040516020818303038152906040528051906020012014905092915050565b828054610ea690611328565b90600052602060002090601f016020900481019282610ec85760008555610f0e565b82601f10610ee157805160ff1916838001178555610f0e565b82800160010185558215610f0e579182015b82811115610f0e578251825591602001919060010190610ef3565b50610f1a929150610fb3565b5090565b508054610f2a90611328565b6000825580601f10610f3c5750610a1f565b601f016020900490600052602060002090810190610a1f9190610fb3565b828054828255906000526020600020908101928215610fa7579160200282015b82811115610fa75782518051610f97918491602090910190610e9a565b5091602001919060010190610f7a565b50610f1a929150610fc8565b5b80821115610f1a5760008155600101610fb4565b80821115610f1a576000610fdc8282610f1e565b50600101610fc8565b600082601f830112610ff5578081fd5b813567ffffffffffffffff8082111561101057611010611363565b604051601f8301601f19168101602001828111828210171561103457611034611363565b60405282815284830160200186101561104b578384fd5b82602086016020830137918201602001929092529392505050565b600060208284031215611077578081fd5b81356001600160a01b038116811461108d578182fd5b9392505050565b6000602082840312156110a5578081fd5b813567ffffffffffffffff8111156110bb578182fd5b6110c784828501610fe5565b949350505050565b600080600080600060a086880312156110e6578081fd5b853567ffffffffffffffff808211156110fd578283fd5b61110989838a01610fe5565b9650602088013591508082111561111e578283fd5b61112a89838a01610fe5565b9550604088013591508082111561113f578283fd5b5061114c88828901610fe5565b9598949750949560608101359550608001359392505050565b600060208284031215611176578081fd5b5035919050565b600081518084526111958160208601602086016112f8565b601f01601f19169290920160200192915050565b600082516111bb8184602087016112f8565b9190910192915050565b6001600160a01b0391909116815260200190565b6001600160a01b0383168152604060208083018290528351918301829052600091606081830285018101929190850190868301855b8281101561123c57605f1988870301845261122a86835161117d565b9550928401929084019060010161120e565b509398975050505050505050565b901515815260200190565b60006020825261108d602083018461117d565b600060a0825261127b60a083018861117d565b828103602084015261128d818861117d565b905082810360408401526112a1818761117d565b60608401959095525050608001529392505050565b6000608082526112c9608083018761117d565b82810360208401526112db818761117d565b604084019590955250506060015292915050565b90815260200190565b60005b838110156113135781810151838201526020016112fb565b83811115611322576000848401525b50505050565b60028104600182168061133c57607f821691505b6020821081141561135d57634e487b7160e01b600052602260045260246000fd5b50919050565b634e487b7160e01b600052604160045260246000fdfea2646970667358221220028dce9b0b1197e7a04f49ff630570d244e9919282e881e846cbb3aa8c0caa1364736f6c63430008000033",
  "immutableReferences": {},
  "source": "// SPDX-License-Identifier: MIT\r\npragma solidity ^0.8.0;\r\n\r\nimport \"./Owned.sol\";\r\n\r\ncontract MyLibrary is Owned {\r\n    mapping(address => Customer) customers;\r\n    mapping(string => Book) public books;\r\n    string[] public booksIds;\r\n\r\n    struct Customer {\r\n        address adr;\r\n        string[] ownedBooks;\r\n    }\r\n\r\n    struct Book {\r\n        string id;\r\n        string name;\r\n        string author;\r\n        uint256 price;\r\n        uint256 default_amount;\r\n    }\r\n\r\n    event CustomerRegistered(address customer);\r\n    event CustomerRegistrationFailed(address customer);\r\n\r\n    event BookRegistered(string bookId);\r\n    event BookDeregistered(string bookId);\r\n    event BookRegisteredFailed(string productId);\r\n    event BookDeregistrationFaled(string productId);\r\n\r\n    constructor() {\r\n        owner = msg.sender;\r\n    }\r\n\r\n    function addBook(\r\n        string memory id,\r\n        string memory name,\r\n        string memory author,\r\n        uint256 price,\r\n        uint256 default_amount\r\n    ) public onlyOwner returns (bool success) {\r\n        Book memory book = Book(id, name, author, price, default_amount);\r\n        if (checkProductValidity(book)) {\r\n            books[id] = book;\r\n            booksIds.push(id);\r\n            emit BookRegistered(id);\r\n            return true;\r\n        }\r\n        emit BookRegisteredFailed(id);\r\n        return false;\r\n    }\r\n\r\n    function deleteBook(string memory id)\r\n        public\r\n        onlyOwner\r\n        returns (bool success)\r\n    {\r\n        Book memory product = books[id];\r\n        if (compareStrings(product.id, id)) {\r\n            delete books[id];\r\n            emit BookDeregistered(id);\r\n            return true;\r\n        }\r\n        emit BookDeregistrationFaled(id);\r\n        return false;\r\n    }\r\n\r\n    function registerCustomer(address _address) private returns (bool success) {\r\n        if (_address != address(0)) {\r\n            Customer memory customer =\r\n                Customer({adr: _address, ownedBooks: new string[](0)});\r\n            customers[_address] = customer;\r\n            emit CustomerRegistered(_address);\r\n            return true;\r\n        }\r\n        emit CustomerRegistrationFailed(_address);\r\n        return false;\r\n    }\r\n\r\n    function getMyProfile()\r\n        public\r\n        returns (address adr, string[] memory ownedBooks)\r\n    {\r\n        if (customers[msg.sender].adr != address(0)) {\r\n            // exista deja\r\n            return (\r\n                customers[msg.sender].adr,\r\n                customers[msg.sender].ownedBooks\r\n            );\r\n        } else {\r\n            if (registerCustomer(msg.sender)) {\r\n                return (\r\n                    customers[msg.sender].adr,\r\n                    customers[msg.sender].ownedBooks\r\n                );\r\n            }\r\n        }\r\n    }\r\n\r\n    // function insertProductIntoCart(uint256 id)\r\n    //     returns (bool success, uint256 pos_in_prod_mapping)\r\n    // {\r\n    //     Customer cust = customers[msg.sender];\r\n    //     Product prod = products[id];\r\n    //     uint256 prods_prev_len = cust.cart.products.length;\r\n    //     cust.cart.products.push(prod.id);\r\n    //     uint256 current_sum = cust.cart.completeSum;\r\n    //     cust.cart.completeSum = safeAdd(current_sum, prod.price);\r\n    //     if (cust.cart.products.length > prods_prev_len) {\r\n    //         CartProductInserted(\r\n    //             msg.sender,\r\n    //             id,\r\n    //             prod.price,\r\n    //             cust.cart.completeSum\r\n    //         );\r\n    //         return (true, cust.cart.products.length - 1);\r\n    //     }\r\n    //     CartProductInsertionFailed(msg.sender, id);\r\n    //     return (false, 0);\r\n    // }\r\n\r\n    // function checkoutCart() returns (bool success) {\r\n    //     Customer customer = customers[msg.sender];\r\n    //     uint256 paymentSum = customer.cart.completeSum;\r\n    //     if (\r\n    //         (customer.balance >= paymentSum) &&\r\n    //         customer.cart.products.length > 0\r\n    //     ) {\r\n    //         customer.balance -= paymentSum;\r\n    //         customer.cart = Cart(new uint256[](0), 0);\r\n    //         store_balance += paymentSum;\r\n    //         CartCheckoutCompleted(msg.sender, paymentSum);\r\n    //         return true;\r\n    //     }\r\n    //     CartCheckoutFailed(msg.sender, customer.balance, paymentSum);\r\n    //     return false;\r\n    // }\r\n\r\n    function getBook(string memory id)\r\n        public\r\n        view\r\n        returns (\r\n            string memory name,\r\n            string memory author,\r\n            uint256 price,\r\n            uint256 default_amount\r\n        )\r\n    {\r\n        return (\r\n            books[id].name,\r\n            books[id].author,\r\n            books[id].price,\r\n            books[id].default_amount\r\n        );\r\n    }\r\n\r\n    // function getCart()\r\n    //     public\r\n    //     returns (uint256[] memory product_ids, uint256 complete_sum)\r\n    // {\r\n    //     Customer customer = customers[msg.sender];\r\n    //     uint256 len = customer.cart.products.length;\r\n    //     uint256[] memory ids = new uint256[](len);\r\n    //     for (uint256 i = 0; i < len; i++) {\r\n    //         ids[i] = products[i].id;\r\n    //     }\r\n    //     return (ids, customer.cart.completeSum);\r\n    // }\r\n\r\n    modifier costs(address buyer, uint256 _amount) {\r\n        require(buyer.balance <= _amount, \"Not enough Ether provided.\");\r\n        _;\r\n    }\r\n\r\n    function getRandom() public pure returns (string memory) {\r\n        return \"test\";\r\n    }\r\n\r\n    function checkProductValidity(Book memory book)\r\n        private\r\n        pure\r\n        returns (bool valid)\r\n    {\r\n        return (book.price > 0);\r\n    }\r\n\r\n    function getBooksCount() public view returns (uint256 count) {\r\n        return booksIds.length;\r\n    }\r\n\r\n    function compareStrings(string memory a, string memory b)\r\n        private\r\n        pure\r\n        returns (bool)\r\n    {\r\n        return (keccak256(abi.encodePacked((a))) ==\r\n            keccak256(abi.encodePacked((b))));\r\n    }\r\n}\r\n",
  "sourcePath": "D:/Projects/Blockchain/booker-dapp/contracts/MyLibrary.sol",
  "compiler": {
    "name": "solc",
    "version": "0.8.0+commit.c7dfd78e.Emscripten.clang"
  },
  "schemaVersion": "3.4.0",
  "updatedAt": "2021-05-09T14:19:18.866Z",
  "networkType": "ethereum",
  "devdoc": {
    "kind": "dev",
    "methods": {
      "transferOwnership(address)": {
        "params": {
          "new_owner": "Address of the new owner"
        }
      }
    },
    "version": 1
  },
  "userdoc": {
    "kind": "user",
    "methods": {
      "transferOwnership(address)": {
        "notice": "Changes the address of the store owner"
      }
    },
    "version": 1
  }
}