{
  "contractName": "MyLibrary",
  "abi": [
    {
      "inputs": [],
      "stateMutability": "nonpayable",
      "type": "constructor"
    },
    {
      "anonymous": false,
      "inputs": [
        {
          "indexed": false,
          "internalType": "address",
          "name": "customer",
          "type": "address"
        },
        {
          "indexed": false,
          "internalType": "string",
          "name": "bookId",
          "type": "string"
        }
      ],
      "name": "BookBuyCompleted",
      "type": "event"
    },
    {
      "anonymous": false,
      "inputs": [
        {
          "indexed": false,
          "internalType": "address",
          "name": "customer",
          "type": "address"
        },
        {
          "indexed": false,
          "internalType": "string",
          "name": "bookId",
          "type": "string"
        }
      ],
      "name": "BookBuyFailed",
      "type": "event"
    },
    {
      "anonymous": false,
      "inputs": [
        {
          "indexed": false,
          "internalType": "string",
          "name": "bookId",
          "type": "string"
        }
      ],
      "name": "BookDeregistered",
      "type": "event"
    },
    {
      "anonymous": false,
      "inputs": [
        {
          "indexed": false,
          "internalType": "string",
          "name": "productId",
          "type": "string"
        }
      ],
      "name": "BookDeregistrationFaled",
      "type": "event"
    },
    {
      "anonymous": false,
      "inputs": [
        {
          "indexed": false,
          "internalType": "string",
          "name": "bookId",
          "type": "string"
        }
      ],
      "name": "BookRegistered",
      "type": "event"
    },
    {
      "anonymous": false,
      "inputs": [
        {
          "indexed": false,
          "internalType": "string",
          "name": "productId",
          "type": "string"
        }
      ],
      "name": "BookRegisteredFailed",
      "type": "event"
    },
    {
      "anonymous": false,
      "inputs": [
        {
          "indexed": false,
          "internalType": "address",
          "name": "customer",
          "type": "address"
        }
      ],
      "name": "CustomerRegistered",
      "type": "event"
    },
    {
      "anonymous": false,
      "inputs": [
        {
          "indexed": false,
          "internalType": "address",
          "name": "customer",
          "type": "address"
        }
      ],
      "name": "CustomerRegistrationFailed",
      "type": "event"
    },
    {
      "inputs": [
        {
          "internalType": "string",
          "name": "",
          "type": "string"
        }
      ],
      "name": "books",
      "outputs": [
        {
          "internalType": "string",
          "name": "id",
          "type": "string"
        },
        {
          "internalType": "string",
          "name": "name",
          "type": "string"
        },
        {
          "internalType": "string",
          "name": "author",
          "type": "string"
        },
        {
          "internalType": "uint256",
          "name": "price",
          "type": "uint256"
        },
        {
          "internalType": "uint256",
          "name": "default_amount",
          "type": "uint256"
        }
      ],
      "stateMutability": "view",
      "type": "function",
      "constant": true
    },
    {
      "inputs": [
        {
          "internalType": "uint256",
          "name": "",
          "type": "uint256"
        }
      ],
      "name": "booksIds",
      "outputs": [
        {
          "internalType": "string",
          "name": "",
          "type": "string"
        }
      ],
      "stateMutability": "view",
      "type": "function",
      "constant": true
    },
    {
      "inputs": [
        {
          "internalType": "address",
          "name": "",
          "type": "address"
        }
      ],
      "name": "customers",
      "outputs": [
        {
          "internalType": "address",
          "name": "adr",
          "type": "address"
        }
      ],
      "stateMutability": "view",
      "type": "function",
      "constant": true
    },
    {
      "inputs": [],
      "name": "owner",
      "outputs": [
        {
          "internalType": "address",
          "name": "",
          "type": "address"
        }
      ],
      "stateMutability": "view",
      "type": "function",
      "constant": true
    },
    {
      "inputs": [
        {
          "internalType": "address",
          "name": "new_owner",
          "type": "address"
        }
      ],
      "name": "transferOwnership",
      "outputs": [],
      "stateMutability": "nonpayable",
      "type": "function"
    },
    {
      "inputs": [
        {
          "internalType": "string",
          "name": "id",
          "type": "string"
        },
        {
          "internalType": "string",
          "name": "name",
          "type": "string"
        },
        {
          "internalType": "string",
          "name": "author",
          "type": "string"
        },
        {
          "internalType": "uint256",
          "name": "price",
          "type": "uint256"
        },
        {
          "internalType": "uint256",
          "name": "default_amount",
          "type": "uint256"
        }
      ],
      "name": "addBook",
      "outputs": [
        {
          "internalType": "bool",
          "name": "success",
          "type": "bool"
        }
      ],
      "stateMutability": "nonpayable",
      "type": "function"
    },
    {
      "inputs": [
        {
          "internalType": "string",
          "name": "id",
          "type": "string"
        }
      ],
      "name": "deleteBook",
      "outputs": [
        {
          "internalType": "bool",
          "name": "success",
          "type": "bool"
        }
      ],
      "stateMutability": "nonpayable",
      "type": "function"
    },
    {
      "inputs": [],
      "name": "getOwnedBooks",
      "outputs": [
        {
          "internalType": "bool",
          "name": "exists",
          "type": "bool"
        },
        {
          "internalType": "string[]",
          "name": "ownedBooks",
          "type": "string[]"
        }
      ],
      "stateMutability": "view",
      "type": "function",
      "constant": true
    },
    {
      "inputs": [
        {
          "internalType": "string",
          "name": "id",
          "type": "string"
        }
      ],
      "name": "buyBook",
      "outputs": [
        {
          "internalType": "bool",
          "name": "success",
          "type": "bool"
        },
        {
          "internalType": "uint256",
          "name": "aft",
          "type": "uint256"
        },
        {
          "internalType": "uint256",
          "name": "before",
          "type": "uint256"
        },
        {
          "components": [
            {
              "internalType": "address",
              "name": "adr",
              "type": "address"
            },
            {
              "internalType": "string[]",
              "name": "ownedBooks",
              "type": "string[]"
            }
          ],
          "internalType": "struct MyLibrary.Customer",
          "name": "cust",
          "type": "tuple"
        }
      ],
      "stateMutability": "payable",
      "type": "function",
      "payable": true
    },
    {
      "inputs": [
        {
          "internalType": "string",
          "name": "id",
          "type": "string"
        }
      ],
      "name": "getBook",
      "outputs": [
        {
          "internalType": "string",
          "name": "name",
          "type": "string"
        },
        {
          "internalType": "string",
          "name": "author",
          "type": "string"
        },
        {
          "internalType": "uint256",
          "name": "price",
          "type": "uint256"
        },
        {
          "internalType": "uint256",
          "name": "default_amount",
          "type": "uint256"
        }
      ],
      "stateMutability": "view",
      "type": "function",
      "constant": true
    },
    {
      "inputs": [],
      "name": "getRandom",
      "outputs": [
        {
          "internalType": "string",
          "name": "",
          "type": "string"
        }
      ],
      "stateMutability": "pure",
      "type": "function",
      "constant": true
    },
    {
      "inputs": [],
      "name": "getBooksCount",
      "outputs": [
        {
          "internalType": "uint256",
          "name": "count",
          "type": "uint256"
        }
      ],
      "stateMutability": "view",
      "type": "function",
      "constant": true
    }
  ],
  "bytecode": "0x608060405234801561001057600080fd5b50600080546001600160a01b031990811633908117909116179055611a688061003a6000396000f3fe6080604052600436106100a75760003560e01c8063aacc5a1711610064578063aacc5a171461019b578063b66d5c91146101bd578063c37a8361146101dd578063dfd83d2a1461020d578063f2fde38b1461022f578063f963752314610251576100a7565b806313da26ea146100ac5780632b9dfe80146100d8578063336989ae146101095780637d2cd4bf146101365780638da5cb5b14610163578063a6b888e814610178575b600080fd5b3480156100b857600080fd5b506100c1610271565b6040516100cf9291906117ed565b60405180910390f35b3480156100e457600080fd5b506100f86100f336600461164d565b61046b565b6040516100cf9594939291906118fe565b34801561011557600080fd5b506101296101243660046115b9565b61063c565b6040516100cf919061178e565b34801561014257600080fd5b50610156610151366004611688565b610657565b6040516100cf91906117e2565b34801561016f57600080fd5b506101296107fc565b61018b6101863660046115e0565b61080b565b6040516100cf9493929190611857565b3480156101a757600080fd5b506101b0610bbc565b6040516100cf91906118eb565b3480156101c957600080fd5b506101b06101d836600461171e565b610bda565b3480156101e957600080fd5b506101fd6101f836600461164d565b610c86565b6040516100cf949392919061194c565b34801561021957600080fd5b50610222610e39565b6040516100cf9190611985565b34801561023b57600080fd5b5061024f61024a3660046115b9565b610e3f565b005b34801561025d57600080fd5b5061015661026c36600461164d565b610ea0565b336000908152600160205260408120546060906001600160a01b03161561037f57336000908152600160208181526040808420830180548251818502810185019093528083529394909391928492919084015b828210156103705783829060005260206000200180546102e3906119e1565b80601f016020809104026020016040519081016040528092919081815260200182805461030f906119e1565b801561035c5780601f106103315761010080835404028352916020019161035c565b820191906000526020600020905b81548152906001019060200180831161033f57829003601f168201915b5050505050815260200190600101906102c4565b50505050905091509150610467565b3360009081526001602081815260408084209092018054835181840281018401909452808452909291839190859084015b8282101561045c5783829060005260206000200180546103cf906119e1565b80601f01602080910402602001604051908101604052809291908181526020018280546103fb906119e1565b80156104485780601f1061041d57610100808354040283529160200191610448565b820191906000526020600020905b81548152906001019060200180831161042b57829003601f168201915b5050505050815260200190600101906103b0565b505050509050915091505b9091565b8051602081830181018051600282529282019190930120915280548190610491906119e1565b80601f01602080910402602001604051908101604052809291908181526020018280546104bd906119e1565b801561050a5780601f106104df5761010080835404028352916020019161050a565b820191906000526020600020905b8154815290600101906020018083116104ed57829003601f168201915b50505050509080600101805461051f906119e1565b80601f016020809104026020016040519081016040528092919081815260200182805461054b906119e1565b80156105985780601f1061056d57610100808354040283529160200191610598565b820191906000526020600020905b81548152906001019060200180831161057b57829003601f168201915b5050505050908060020180546105ad906119e1565b80601f01602080910402602001604051908101604052809291908181526020018280546105d9906119e1565b80156106265780601f106105fb57610100808354040283529160200191610626565b820191906000526020600020905b81548152906001019060200180831161060957829003601f168201915b5050505050908060030154908060040154905085565b6001602052600090815260409020546001600160a01b031681565b600080546001600160a01b0316331461066f57600080fd5b60006040518060a001604052808881526020018781526020018681526020018581526020018481525090506106a38161119e565b156107b657806002886040516106b99190611772565b908152602001604051809103902060008201518160000190805190602001906106e3929190611361565b5060208281015180516106fc9260018501920190611361565b5060408201518051610718916002840191602090910190611361565b50606082015160038083019190915560809092015160049091015580546001810182556000919091528751610774917fc2575a0e9e593c00f959f8c92f12db2869c3395a3b0502d05e2516446f71f85b019060208a0190611361565b507f5deba97512d6e888de03aa19fcf4930512094d2f0fff544d12413485f38fc2a2876040516107a491906118eb565b60405180910390a160019150506107f3565b7fa84a2ab48e9a5c0a805c086fcc0584023a4661f7dc92da1f77010895790cead1876040516107e591906118eb565b60405180910390a160009150505b95945050505050565b6000546001600160a01b031681565b60008060006108186113e5565b60006002878760405161082c929190611762565b9081526020016040518091039020600401541115610a6a5760028686604051610856929190611762565b90815260200160405180910390206004015491506002868660405161087c929190611762565b908152604051908190036020019020600401805490600061089c836119be565b9091555050336000908152600160205260409020546001600160a01b0316156108d0576108ca3387876111a7565b506108fd565b336000908152600160208181526040832082018054928301815583529091206108fb910187876113fd565b505b7f10947030525a055d911b58339faac20795a270867e12504064e1802e14ed2a60338787604051610930939291906117a2565b60405180910390a160016002878760405161094c929190611762565b9081526040805160209281900383018120600401543360009081526001808652848220848601865280546001600160a01b03168552908101805486518189028101890190975280875293968a96929594869482870194939284015b82821015610a535783829060005260206000200180546109c6906119e1565b80601f01602080910402602001604051908101604052809291908181526020018280546109f2906119e1565b8015610a3f5780601f10610a1457610100808354040283529160200191610a3f565b820191906000526020600020905b815481529060010190602001808311610a2257829003601f168201915b5050505050815260200190600101906109a7565b505050508152505090509350935093509350610bb3565b7f7aa949cc1c856f3ca7467b2aa010e0f523909387532646bb4466395021248118338787604051610a9d939291906117a2565b60405180910390a13360009081526001602081815260408084208151808301835281546001600160a01b03168152938101805483518186028101860190945280845286958695939490938593858201939091889084015b82821015610ba0578382906000526020600020018054610b13906119e1565b80601f0160208091040260200160405190810160405280929190818152602001828054610b3f906119e1565b8015610b8c5780601f10610b6157610100808354040283529160200191610b8c565b820191906000526020600020905b815481529060010190602001808311610b6f57829003601f168201915b505050505081526020019060010190610af4565b5050505081525050905093509350935093505b92959194509250565b6040805180820190915260048152631d195cdd60e21b602082015290565b60038181548110610bea57600080fd5b906000526020600020016000915090508054610c05906119e1565b80601f0160208091040260200160405190810160405280929190818152602001828054610c31906119e1565b8015610c7e5780601f10610c5357610100808354040283529160200191610c7e565b820191906000526020600020905b815481529060010190602001808311610c6157829003601f168201915b505050505081565b606080600080600285604051610c9c9190611772565b9081526020016040518091039020600101600286604051610cbd9190611772565b9081526020016040518091039020600201600287604051610cde9190611772565b908152602001604051809103902060030154600288604051610d009190611772565b908152602001604051809103902060040154838054610d1e906119e1565b80601f0160208091040260200160405190810160405280929190818152602001828054610d4a906119e1565b8015610d975780601f10610d6c57610100808354040283529160200191610d97565b820191906000526020600020905b815481529060010190602001808311610d7a57829003601f168201915b50505050509350828054610daa906119e1565b80601f0160208091040260200160405190810160405280929190818152602001828054610dd6906119e1565b8015610e235780601f10610df857610100808354040283529160200191610e23565b820191906000526020600020905b815481529060010190602001808311610e0657829003601f168201915b5050505050925093509350935093509193509193565b60035490565b6000546001600160a01b03163314610e5657600080fd5b6001600160a01b03811615801590610e7c57506000546001600160a01b03828116911614155b15610e9d57600080546001600160a01b0319166001600160a01b0383161790555b50565b600080546001600160a01b03163314610eb857600080fd5b6000600283604051610eca9190611772565b90815260200160405180910390206040518060a0016040529081600082018054610ef3906119e1565b80601f0160208091040260200160405190810160405280929190818152602001828054610f1f906119e1565b8015610f6c5780601f10610f4157610100808354040283529160200191610f6c565b820191906000526020600020905b815481529060010190602001808311610f4f57829003601f168201915b50505050508152602001600182018054610f85906119e1565b80601f0160208091040260200160405190810160405280929190818152602001828054610fb1906119e1565b8015610ffe5780601f10610fd357610100808354040283529160200191610ffe565b820191906000526020600020905b815481529060010190602001808311610fe157829003601f168201915b50505050508152602001600282018054611017906119e1565b80601f0160208091040260200160405190810160405280929190818152602001828054611043906119e1565b80156110905780601f1061106557610100808354040283529160200191611090565b820191906000526020600020905b81548152906001019060200180831161107357829003601f168201915b505050505081526020016003820154815260200160048201548152505090506110bd816000015184611308565b1561115c576002836040516110d29190611772565b90815260405190819003602001902060006110ed8282611471565b6110fb600183016000611471565b611109600283016000611471565b6003820160009055600482016000905550507fb8b06af68b06bfd06a74ee0a2f066e83511c89e917304ceca2a58891748da35a8360405161114a91906118eb565b60405180910390a16001915050611199565b7f23a465e5078e5c2eb529fa2fa16a1dfe48663bd5a3b23f0f14ba20229cdbf24f8360405161118b91906118eb565b60405180910390a160009150505b919050565b60600151151590565b60006001600160a01b038416156112c6576040805180820182526001600160a01b038616815281516000808252602082810190945292820190836111fb565b60608152602001906001900390816111e65790505b5090526001600160a01b038681166000908152600160208181526040909220845181546001600160a01b0319169416939093178355838201518051949550859461124d939285019291909101906114ad565b5050506001600160a01b038516600090815260016020818152604083208201805492830181558352909120611284910185856113fd565b507f155e8619f4d23b96769599cb9af87da3e06a360082869c18578011da9a06e670856040516112b4919061178e565b60405180910390a16001915050611301565b7f7c66b00fc05577d946381dc5b311ac0e6f93dbdc6f1b7b6a570ccdd7dbed6a03846040516112f5919061178e565b60405180910390a15060005b9392505050565b60008160405160200161131b9190611772565b60405160208183030381529060405280519060200120836040516020016113429190611772565b6040516020818303038152906040528051906020012014905092915050565b82805461136d906119e1565b90600052602060002090601f01602090048101928261138f57600085556113d5565b82601f106113a857805160ff19168380011785556113d5565b828001600101855582156113d5579182015b828111156113d55782518255916020019190600101906113ba565b506113e1929150611506565b5090565b60408051808201909152600081526060602082015290565b828054611409906119e1565b90600052602060002090601f01602090048101928261142b57600085556113d5565b82601f106114445782800160ff198235161785556113d5565b828001600101855582156113d5579182015b828111156113d5578235825591602001919060010190611456565b50805461147d906119e1565b6000825580601f1061148f5750610e9d565b601f016020900490600052602060002090810190610e9d9190611506565b8280548282559060005260206000209081019282156114fa579160200282015b828111156114fa57825180516114ea918491602090910190611361565b50916020019190600101906114cd565b506113e192915061151b565b5b808211156113e15760008155600101611507565b808211156113e157600061152f8282611471565b5060010161151b565b600082601f830112611548578081fd5b813567ffffffffffffffff8082111561156357611563611a1c565b604051601f8301601f19168101602001828111828210171561158757611587611a1c565b60405282815284830160200186101561159e578384fd5b82602086016020830137918201602001929092529392505050565b6000602082840312156115ca578081fd5b81356001600160a01b0381168114611301578182fd5b600080602083850312156115f2578081fd5b823567ffffffffffffffff80821115611609578283fd5b818501915085601f83011261161c578283fd5b81358181111561162a578384fd5b86602082850101111561163b578384fd5b60209290920196919550909350505050565b60006020828403121561165e578081fd5b813567ffffffffffffffff811115611674578182fd5b61168084828501611538565b949350505050565b600080600080600060a0868803121561169f578081fd5b853567ffffffffffffffff808211156116b6578283fd5b6116c289838a01611538565b965060208801359150808211156116d7578283fd5b6116e389838a01611538565b955060408801359150808211156116f8578283fd5b5061170588828901611538565b9598949750949560608101359550608001359392505050565b60006020828403121561172f578081fd5b5035919050565b6000815180845261174e81602086016020860161198e565b601f01601f19169290920160200192915050565b6000828483379101908152919050565b6000825161178481846020870161198e565b9190910192915050565b6001600160a01b0391909116815260200190565b6001600160a01b03841681526040602082018190528101829052600082846060840137818301606090810191909152601f909201601f1916010192915050565b901515815260200190565b6000604082018415158352602060408185015281855180845260608601915060608382028701019350828701855b8281101561184957605f19888703018452611837868351611736565b9550928401929084019060010161181b565b509398975050505050505050565b60008515158252602085818401528460408401526080606084015260c0830160018060a01b03855116608085015281850151604060a086015281815180845260e08701915060e085820288010193508483019250855b818110156118db5760df198886030183526118c9858551611736565b945092850192918501916001016118ad565b50929a9950505050505050505050565b6000602082526113016020830184611736565b600060a0825261191160a0830188611736565b82810360208401526119238188611736565b905082810360408401526119378187611736565b60608401959095525050608001529392505050565b60006080825261195f6080830187611736565b82810360208401526119718187611736565b604084019590955250506060015292915050565b90815260200190565b60005b838110156119a9578181015183820152602001611991565b838111156119b8576000848401525b50505050565b6000816119d957634e487b7160e01b81526011600452602481fd5b506000190190565b6002810460018216806119f557607f821691505b60208210811415611a1657634e487b7160e01b600052602260045260246000fd5b50919050565b634e487b7160e01b600052604160045260246000fdfea264697066735822122053207303dc1f865ae54f40564568ec7a7187d86501833e11ca9ab3257ecbe97364736f6c63430008000033",
  "immutableReferences": {},
  "source": "// SPDX-License-Identifier: MIT\r\npragma solidity ^0.8.0;\r\n\r\nimport \"./Owned.sol\";\r\n\r\ncontract MyLibrary is Owned {\r\n    mapping(address => Customer) public customers;\r\n    mapping(string => Book) public books;\r\n    string[] public booksIds;\r\n\r\n    struct Customer {\r\n        address adr;\r\n        string[] ownedBooks;\r\n    }\r\n\r\n    struct Book {\r\n        string id;\r\n        string name;\r\n        string author;\r\n        uint256 price;\r\n        uint256 default_amount;\r\n    }\r\n\r\n    event CustomerRegistered(address customer);\r\n    event CustomerRegistrationFailed(address customer);\r\n\r\n    event BookBuyCompleted(address customer, string bookId);\r\n    event BookBuyFailed(address customer, string bookId);\r\n\r\n    event BookRegistered(string bookId);\r\n    event BookDeregistered(string bookId);\r\n    event BookRegisteredFailed(string productId);\r\n    event BookDeregistrationFaled(string productId);\r\n\r\n    constructor() {\r\n        owner = msg.sender;\r\n    }\r\n\r\n    function addBook(\r\n        string memory id,\r\n        string memory name,\r\n        string memory author,\r\n        uint256 price,\r\n        uint256 default_amount\r\n    ) public onlyOwner returns (bool success) {\r\n        Book memory book = Book(id, name, author, price, default_amount);\r\n        if (checkProductValidity(book)) {\r\n            books[id] = book;\r\n            booksIds.push(id);\r\n            emit BookRegistered(id);\r\n            return true;\r\n        }\r\n        emit BookRegisteredFailed(id);\r\n        return false;\r\n    }\r\n\r\n    function deleteBook(string memory id)\r\n        public\r\n        onlyOwner\r\n        returns (bool success)\r\n    {\r\n        Book memory product = books[id];\r\n        if (compareStrings(product.id, id)) {\r\n            delete books[id];\r\n            emit BookDeregistered(id);\r\n            return true;\r\n        }\r\n        emit BookDeregistrationFaled(id);\r\n        return false;\r\n    }\r\n\r\n    function registerCustomer(address _address, string calldata bookId)\r\n        private\r\n        returns (bool success)\r\n    {\r\n        if (_address != address(0)) {\r\n            Customer memory customer =\r\n                Customer({adr: _address, ownedBooks: new string[](0)});\r\n            customers[_address] = customer;\r\n            customers[_address].ownedBooks.push(bookId);\r\n            emit CustomerRegistered(_address);\r\n            return true;\r\n        }\r\n        emit CustomerRegistrationFailed(_address);\r\n        return false;\r\n    }\r\n\r\n    function getOwnedBooks()\r\n        public\r\n        view\r\n        returns (bool exists, string[] memory ownedBooks)\r\n    {\r\n        if (customers[msg.sender].adr != address(0)) {\r\n            // exista deja\r\n            return (true, customers[msg.sender].ownedBooks);\r\n        }\r\n        return (false, customers[msg.sender].ownedBooks);\r\n    }\r\n\r\n    function buyBook(string calldata id)\r\n        public\r\n        payable\r\n        returns (\r\n            bool success,\r\n            uint256 aft,\r\n            uint256 before,\r\n            Customer memory cust\r\n        )\r\n    {\r\n        if (books[id].default_amount > 0) {\r\n            before = books[id].default_amount;\r\n            books[id].default_amount--;\r\n\r\n            if (customers[msg.sender].adr != address(0)) {\r\n                // exista deja\r\n                registerCustomer(msg.sender, id);\r\n            } else {\r\n                customers[msg.sender].ownedBooks.push(id);\r\n            }\r\n\r\n            emit BookBuyCompleted(msg.sender, id);\r\n            return (\r\n                true,\r\n                books[id].default_amount,\r\n                before,\r\n                customers[msg.sender]\r\n            );\r\n        }\r\n        emit BookBuyFailed(msg.sender, id);\r\n        return (false, 0, 0, customers[msg.sender]);\r\n    }\r\n\r\n    function getBook(string memory id)\r\n        public\r\n        view\r\n        returns (\r\n            string memory name,\r\n            string memory author,\r\n            uint256 price,\r\n            uint256 default_amount\r\n        )\r\n    {\r\n        return (\r\n            books[id].name,\r\n            books[id].author,\r\n            books[id].price,\r\n            books[id].default_amount\r\n        );\r\n    }\r\n\r\n    // function getCart()\r\n    //     public\r\n    //     returns (uint256[] memory product_ids, uint256 complete_sum)\r\n    // {\r\n    //     Customer customer = customers[msg.sender];\r\n    //     uint256 len = customer.cart.products.length;\r\n    //     uint256[] memory ids = new uint256[](len);\r\n    //     for (uint256 i = 0; i < len; i++) {\r\n    //         ids[i] = products[i].id;\r\n    //     }\r\n    //     return (ids, customer.cart.completeSum);\r\n    // }\r\n\r\n    modifier costs(address buyer, uint256 _amount) {\r\n        require(buyer.balance <= _amount, \"Not enough Ether provided.\");\r\n        _;\r\n    }\r\n\r\n    function getRandom() public pure returns (string memory) {\r\n        return \"test\";\r\n    }\r\n\r\n    function checkProductValidity(Book memory book)\r\n        private\r\n        pure\r\n        returns (bool valid)\r\n    {\r\n        return (book.price > 0);\r\n    }\r\n\r\n    function getBooksCount() public view returns (uint256 count) {\r\n        return booksIds.length;\r\n    }\r\n\r\n    function compareStrings(string memory a, string memory b)\r\n        private\r\n        pure\r\n        returns (bool)\r\n    {\r\n        return (keccak256(abi.encodePacked((a))) ==\r\n            keccak256(abi.encodePacked((b))));\r\n    }\r\n}\r\n",
  "sourcePath": "D:/Projects/Blockchain/booker-dapp/contracts/MyLibrary.sol",
  "compiler": {
    "name": "solc",
    "version": "0.8.0+commit.c7dfd78e.Emscripten.clang"
  },
  "schemaVersion": "3.4.0",
  "updatedAt": "2021-05-11T14:22:04.817Z",
  "networkType": "ethereum",
  "devdoc": {
    "kind": "dev",
    "methods": {
      "transferOwnership(address)": {
        "params": {
          "new_owner": "Address of the new owner"
        }
      }
    },
    "version": 1
  },
  "userdoc": {
    "kind": "user",
    "methods": {
      "transferOwnership(address)": {
        "notice": "Changes the address of the store owner"
      }
    },
    "version": 1
  }
}